S01B0000352073776974636865732032206D6F746F72732E7372656334
S11300000C942A000C9434000C9434000C943400A6
S11300100C9434000C9434000C9434000C9434008C
S11300200C9434000C9434000C9434000C9434007C
S11300300C9434000C9434000C9434000C9434006C
S11300400C9434000C9434000C9434000C9434005C
S11300500C94340011241FBECFE5D8E0DEBFCDBF21
S11300600E9460000C9484000C94000081B3807E94
S113007081BB82B38F6182BB87B38F6087BB0895D6
S113008088B3807F88BB089588B3896088BB88B3B0
S1130090897F88BB089588B3866088BB88B3867FD0
S11300A088BB089588B38A6088BB88B38A7F88BB7D
S11300B0089588B3856088BB88B3857F88BB08951D
S11300C00E943600809903C00E94400016C08199A6
S11300D003C00E94440011C0829903C00E944B00D7
S11300E00CC0839903C00E94520007C0849903C0C6
S11300F00E94590002C00E94400087EA91E60197DD
S10F0100F1F700C00000DECFF894FFCF40
S9030000FC
