S00B00005350492E737265632D
S11300000C942A000C943F000C943F000C943F0085
S11300100C943F000C943F000C943F000C943F0060
S11300200C943F000C943F000C943F000C943F0050
S11300300C943F000C943F000C943F000C943F0040
S11300400C943F000C943F000C943F000C943F0030
S11300500C943F0011241FBECFE5D8E0DEBFCDBF16
S113006010E0A0E6B0E0E8E5F3E002C005900D92F0
S1130070A037B107D9F70E9442010C94AA010C944D
S1130080000080EB87BB87E58DB908958FB9779B16
S1130090FECF0895779BFECF8FB1089588B380611A
S11300A088BB80E80E94460084E00E94460088B332
S11300B08F7E88BB2FEB84ED91E0215080409040EF
S11300C0E1F700C000000895CF93DF93CDB7DEB70A
S11300D060970FB6F894DEBF0FBECDBF282F80E126
S11300E0E0E6F0E0DE01119601900D928A95E1F7C9
S11300F06295669566956370222354F42195662370
S113010069F070E08BE490E00E94820181E007C016
S113011089E1689F602D112480E001C081E012BA5A
S1130120813019F480E485BB12C0243678F089E26A
S1130130289F812D112482958F70E1E0F0E0EC0F6F
S1130140FD1FE80FF11D808185BB01C015BA81E058
S113015082BB87E893E10197F1F700C0000012BA6F
S11301602A30D8F089E2289F812D112482958F703E
S1130170E22F94E6899FE01911249DECE99F812DDB
S11301801124869586958695E1E0F0E0EC0FFD1F3D
S1130190E80FF11D808185BB01C015BA82E082BBE6
S11301A087E893E10197F1F700C0000012BA8DECE3
S11301B0289F912D1124969596959695990F392FF0
S11301C0330F330F930F291BE1E0F0E0EC0FFD1F19
S11301D0E20FF11D9081906895BB94E092BBE7E833
S11301E0F3E13197F1F700C0000012BA689F812D46
S11301F01124869586958695E1E0F0E0EC0FFD1FCD
S1130200E80FF11D908195BB98E092BBE7E8F3E11C
S11302103197F1F700C0000012BA880F982F990F98
S1130220990F890F681BE1E0F0E0EC0FFD1FE60F6A
S1130230F11D808185BB80E182BB87E893E1019752
S1130240F1F700C0000012BA83E685BB80E282BBEE
S1130250E7E8F3E13197F1F700C0000012BA8D85A9
S113026085BB80E482BB87E893E10197F1F700C086
S1130270000060960FB6F894DEBF0FBECDBFDF91CD
S1130280CF9108958FEF84BB81BB8ABB0E9441004C
S11302900E944E002FEB84ED91E02150804090406D
S11302A0E1F700C0000088B3806188BB82E00E944F
S11302B0460080E00E94460088B38F7E88BB87EEAC
S11302C093E00197F1F700C000000E944A00C82F94
S11302D088B3806188BB81E00E94460080E00E9470
S11302E0460088B38F7E88BB87EE93E00197F1F7D1
S11302F000C000000E944A008BBB682F8C2F0E9414
S11303006400D1CF97FB072E16F4009407D077FD35
S113031009D00E94960107FC05D03EF49095819582
S11303209F4F0895709561957F4F0895AA1BBB1B3D
S113033051E107C0AA1FBB1FA617B70710F0A61BE1
S1130340B70B881F991F5A95A9F780959095BC0102
S10B0350CD010895F894FFCFDC
S11303583F065B4F666D7D077F6F777C395E7971E9
S9030000FC
