S00B00004144432E7372656351
S11300000C942A000C9434000C9434000C943400A6
S11300100C9434000C9434000C9434000C9434008C
S11300200C9434000C9434000C9434000C9434007C
S11300300C9434000C9434000C9434000C9434006C
S11300400C9434000C9434000C9434000C9434005C
S11300500C94340011241FBECFE5D8E0DEBFCDBF21
S11300600E945A000C948C000C94000086B18660A7
S113007086B987B1806487B986B1806886B90895E6
S113008097B1907F8F70892B87B986B1806486B9C8
S11300903699FECF84B195B108958FEF81BB089551
S11300A021E030E002C0220F331F8A95E2F721508D
S11300B022BB08950E9436000E944D0080E00E94F9
S11300C04000880F991F880F991F880F991F6FEFA1
S11300D073E00E947800862F0E9450002FEF80E783
S11300E092E0215080409040E1F700C00000E6CF4C
S11300F0AA1BBB1B51E107C0AA1FBB1FA617B7074A
S113010010F0A61BB70B881F991F5A95A9F7809565
S10F01109095BC01CD010895F894FFCF38
S9030000FC
