S00C000063616C632E7372656385
S11300000C9446000C9463000C9463000C946300FD
S11300100C9463000C9463000C9463000C946300D0
S11300200C9463000C9463000C9463000C946300C0
S11300300C9463000C9463000C9463000C946300B0
S11300400C9463000C9463000C9463000C946300A0
S11300500C9463007504A404E30420054F058E0585
S1130060BD05EC051B064A068906B8061E073C07B3
S1130070200722072407260728072A072C072E070C
S1130080300732073407360738073A0711241FBEF2
S1130090CFE5D8E0DEBFCDBF10E0A0E6B0E0E2E3FC
S11300A0F5E102C005900D92AE39B107D9F721E010
S11300B0AEE9B0E001C01D92A732B207E1F70E9499
S11300C0F1080C94970A0C94000080E006C0E82F15
S11300D0F0E0E45FFE4F10828F5F8031C0F380E078
S11300E013C0E82FF0E0EE0FFF1FEE0FFF1FEE0F1F
S11300F0FF1FE455FF4F1082118212821382148273
S11301001582168217828F5F8C3058F380E006C008
S1130110E82FF0E0E45EFE4F10828F5F8B30C0F377
S11301201092A3001092A2001092A1001092A400B9
S11301301092A5001092A6001092A7001092A80099
S11301401092A9001092AA001092AB0008958A3070
S113015058F4282F30E040E050E060E070E080E0A8
S113016090E00E94BE0808950E946A080895CF9303
S1130170C0E01EC00E943E07C82F8D3019F41092B3
S113018060001BC0E091A100F0E0E45FFE4F8083BB
S11301900E94A7008091A1008F5F8093A1002FE5AA
S11301A08AEE90E0215080409040E1F700C00000CA
S11301B0CD3301F782E080936000CF9108954F9290
S11301C05F926F927F928F929F92AF92BF92CF92E3
S11301D0DF92EF92FF920F931F93CF93DF932C0143
S11301E0862E80919F00882329F010929F00772407
S11301F0739401C0712CA12CB12CC12CD12CE12CF5
S1130200F12C00E010E0912C27C0E82DF0E0E91972
S1130210F109E40DF51D31976080692D8AE00E9493
S113022065079B01AC01A62DB0E00E941F09DC010B
S1130230CB01282F392F4A2F5B2F60E070E080E03C
S113024090E00E945A0AA22EB32EC42ED52EE62E7A
S1130250F72E082F192F93949814B8F2772091F061
S11302602A2D3B2D4C2D5D2D6E2D7F2D802F912F12
S11302700E94130AA22EB32EC42ED52EE62EF72EDC
S1130280082F192F2A2D3B2D4C2D5D2D6E2D7F2DE2
S1130290802F912FDF91CF911F910F91FF90EF90BD
S11302A0DF90CF90BF90AF909F908F907F906F9092
S11302B05F904F90089560E081E00E94A308209130
S11302C0A4003091A5004091A6005091A700609130
S11302D0A8007091A9008091AA009091AB000E949F
S11302E0BE080E943E078D30E1F781E080936000F4
S11302F00895CF93DF93EC0160E081E00E94A308AE
S1130300CE010E9490080E943E078D30E1F785E0FF
S113031080936000DF91CF910895CF92DF92EF92A6
S1130320FF921F93CF93DF93CDB7DEB760970FB6DD
S1130330F894DEBF0FBECDBFFE01319680E1DF0130
S11303401D928A95E9F780910C0196ED980F9230F1
S113035020F08D3211F0853251F48D3241F081E676
S113036090E00E94790181E0809360009FC08D320B
S113037089F480910D0196ED980F923068F08D32DA
S113038069F0853269F081E08093A00080939F003A
S113039011E007C010E005C010E003C010E001C088
S11303A010E060E07CC0E12EF12CF701E45FFE4F29
S11303B080818A3040F09091A000911104C0909106
S11303C09E00992369F0E1E0F0E0EC0FFD1FE60FD9
S11303D0F11D80836F5F1092A00010929E0059C09F
S11303E096ED980F923038F08D3229F0853219F05D
S11303F08D3309F047C09091A200E92FF0E0E45E4C
S1130400FE4F80839F5F9093A200C090A300D12CE5
S1130410CE0101960E94DF00F601EE0FFF1FEE0FE2
S1130420FF1FEE0FFF1FE455FF4F208331834283EC
S1130430538364837583868397838091A3008F5F3E
S11304408093A300F701E35FFE4F80818D3251F466
S1130450112341F081E080939E0080939F001F5FF1
S113046060E017C096ED980F923020F08D3211F0B5
S1130470853271F48FE690E00E94790185E08093E3
S1130480600014C08D3029F481E0809360000EC0B8
S113049060E01F5F8091A10081508093A100809152
S11304A0A100811180CF83E08093600060960FB635
S11304B0F894DEBF0FBECDBFDF91CF911F91FF90A7
S11304C0EF90DF90CF9008954F925F926F927F925A
S11304D08F929F92AF92BF92CF92DF92EF92FF9250
S11304E00F931F93CF93DF938091A200833040F04A
S11304F0ECE1F1E091818081981304C080E003C0B5
S113050080E001C081E0C091A300C130F1F4ECEAC5
S1130510F0E070816181528143813481258196812B
S113052087817093A4006093A5005093A600409324
S1130530A7003093A8002093A9009093AA00809369
S1130540AB0084E0809360005DC4811158C1C23067
S113055008F455C480911C018A3209F455C020F472
S1130560853209F4F0C043C18B3221F08D3209F495
S113057096C03DC11092A4001092A5001092A6004E
S11305801092A7001092A8001092A9001092AA003D
S11305901092AB00A0E035C0EA2FF0E0EE0FFF1F91
S11305A0EE0FFF1FEE0FFF1FE455FF4F2081318137
S11305B0428153816481758186819781A090A400D2
S11305C0B090A500C090A600D090A700E090A8002D
S11305D0F090A9000091AA001091AB000E945A0A61
S11305E02093A4003093A5004093A6005093A70045
S11305F06093A8007093A9008093AA009093AB0025
S1130600AF5FAC1748F2F7C081E08093A40010926A
S1130610A5001092A6001092A7001092A8001092B4
S1130620A9001092AA001092AB00D0E035C0ED2FC3
S1130630F0E0EE0FFF1FEE0FFF1FEE0FFF1FE4555C
S1130640FF4FA080B180C280D380E480F580068112
S113065017812091A4003091A5004091A6005091EB
S1130660A7006091A8007091A9008091AA009091C0
S1130670AB000E942A092093A4003093A500409364
S1130680A6005093A7006093A8007093A9008093DC
S1130690AA009093AB00DF5FDC1748F2ACC0ECEA31
S11306A0F0E070816181528143813481258196819A
S11306B087817093A4006093A5005093A600409393
S11306C0A7003093A8002093A9009093AA008093D8
S11306D0AB00A1E035C0EA2FF0E0EE0FFF1FEE0FF4
S11306E0FF1FEE0FFF1FE455FF4FA080B180C280B3
S11306F0D380E480F580068117812091A400309195
S1130700A5004091A6005091A7006091A8007091A7
S1130710A9008091AA009091AB000E94630A2093E3
S1130720A4003093A5004093A6005093A7006093C3
S1130730A8007093A9008093AA009093AB00AF5FC8
S1130740AC1748F258C0ECEAF0E070816181528144
S1130750438134812581968187817093A4006093BD
S1130760A5005093A6004093A7003093A8002093BF
S1130770A9009093AA008093AB00D1E035C0ED2F7F
S1130780F0E0EE0FFF1FEE0FFF1FEE0FFF1FE4550B
S1130790FF4FA080B180C280D380E480F5800681C1
S11307A017812091A4003091A5004091A60050919A
S11307B0A7006091A8007091A9008091AA0090916F
S11307C0AB000E9485092093A4003093A5004093B8
S11307D0A6005093A7006093A8007093A90080938B
S11307E0AA009093AB00DF5FDC1748F204C08EE7E9
S11307F090E00E94790184E08093600003C3C230DA
S113080008F4FDC280911C018A3229F490911D01E3
S11308109B3209F445C08B3229F490911D019A3220
S113082009F440C08B3221F490911D019D32E1F115
S11308308D3221F490911D019B32C1F18A3221F451
S113084090911D019532A1F1853221F490911D0101
S11308509A3281F1853221F490911D019B3261F12C
S11308608B3221F490911D01953241F18A3221F4A9
S113087090911D019D3221F18D3221F490911D0141
S11308809A3201F1853221F490911D019D32E1F0FB
S11308908D32E1F480911D018532D1F0E0E019C080
S11308A0E1E017C0E2E015C0E3E013C0E4E011C0EA
S11308B0E5E00FC0E6E00DC0E7E00BC0E8E009C0EA
S11308C0E9E007C0EAE005C0EBE003C0E0E001C0F6
S11308D0ECE08E2F90E0FC013197EC30F10508F04C
S11308E086C2E65DFF4F0C941909CCEAD0E028815A
S11308F039814A815B816C817D81A884B984CA84F1
S1130900DB84EC84FD840E851F858E819F810E948B
S11309102A09A888B988CA88DB88EC88FD880E89EA
S11309201F890E945A0A2093A4003093A500409383
S1130930A6005093A7006093A8007093A900809329
S1130940AA009093AB0057C2ECEAF0E040805180DB
S11309506280738084809580D681C78120853185AB
S11309604285538564857585A088B188C288D388FB
S1130970E488F58806891789868597850E942A095F
S1130980A22EB32EC42ED52EE62EF72E082F192F05
S1130990242D352D462D572D682D792D8D2F9C2FE7
S11309A00E945A0A2093A4003093A5004093A60005
S11309B05093A7006093A8007093A9008093AA00A5
S11309C09093AB0018C2ECEAF0E080809180D28171
S11309D0C381B481A5812085318542855385648591
S11309E07585A088B188C288D388E488F58806898B
S11309F01789868597850E94630AA22EB32EC42E7A
S1130A00D52EE62EF72E082F192F282D392D4D2FF0
S1130A105C2F6B2F7A2F868197810E945A0A20932C
S1130A20A4003093A5004093A6005093A7006093C0
S1130A30A8007093A9008093AA009093AB00DBC137
S1130A40ECEAF0E020813181428153816481758137
S1130A50A084B184C284D384E484F5840685178594
S1130A60868197810E94630AA088B188C288D3884E
S1130A70E488F588068917890E945A0A2093A400FD
S1130A803093A5004093A6005093A7006093A8005C
S1130A907093A9008093AA009093AB00ACC1ECEAD8
S1130AA0F0E0408051806280738084809580D6819C
S1130AB0C781208531854285538564857585A088E5
S1130AC0B188C288D388E488F58806891789868521
S1130AD097850E948509A22EB32EC42ED52EE62E0C
S1130AE0F72E082F192F242D352D462D572D682D1F
S1130AF0792D8D2F9C2F0E942A092093A4003093D6
S1130B00A5004093A6005093A7006093A80070939B
S1130B10A9008093AA009093AB006DC1CCEAD0E009
S1130B20288139814A815B816C817D81A884B98463
S1130B30CA84DB84EC84FD840E851F858E819F81AD
S1130B400E948509A888B988CA88DB88EC88FD8852
S1130B500E891F890E942A092093A4003093A500BE
S1130B604093A6005093A7006093A8007093A90037
S1130B708093AA009093AB003EC1CCEAD0E02881D8
S1130B8039814A815B816C817D81A884B984CA845E
S1130B90DB84EC84FD840E851F858E819F810E94F9
S1130BA08509A888B988CA88DB88EC88FD880E89FD
S1130BB01F890E945A0A2093A4003093A5004093F1
S1130BC0A6005093A7006093A8007093A900809397
S1130BD0AA009093AB000FC1CCEAD0E02881398100
S1130BE04A815B816C817D81A884B984CA84DB8459
S1130BF0EC84FD840E851F858E819F810E9485096A
S1130C00A888B988CA88DB88EC88FD880E891F8982
S1130C100E945A0A2093A4003093A5004093A60092
S1130C205093A7006093A8007093A9008093AA0032
S1130C309093AB00E0C0CCEAD0E0288139814A81AE
S1130C405B816C817D81A884B984CA84DB84EC8453
S1130C50FD840E851F858E819F810E942A09A888A4
S1130C60B988CA88DB88EC88FD880E891F890E94B0
S1130C70630A2093A4003093A5004093A6005093E8
S1130C80A7006093A8007093A9008093AA00909392
S1130C90AB00B1C0ECEAF0E0408051806280738028
S1130CA084809580D681C78120853185428553858E
S1130CB064857585A088B188C288D388E488F5885E
S1130CC006891789868597850E942A09A22EB32E44
S1130CD0C42ED52EE62EF72E082F192F242D352DB0
S1130CE0462D572D682D792D8D2F9C2F0E94630A38
S1130CF02093A4003093A5004093A6005093A7002E
S1130D006093A8007093A9008093AA009093AB000D
S1130D1072C0CCEAD0E0288139814A815B816C8140
S1130D207D81A884B984CA84DB84EC84FD840E8527
S1130D301F858E819F810E948509A888B988CA88E9
S1130D40DB88EC88FD880E891F890E94630A209342
S1130D50A4003093A5004093A6005093A70060938D
S1130D60A8007093A9008093AA009093AB0043C09D
S1130D70ECEAF0E04080518062807380848095804A
S1130D80D681C781208531854285538564857585E3
S1130D90A088B188C288D388E488F5880689178931
S1130DA0868597850E948509A22EB32EC42ED52E42
S1130DB0E62EF72E082F192F242D352D462D572DCD
S1130DC0682D792D8D2F9C2F0E94630A2093A400F7
S1130DD03093A5004093A6005093A7006093A80009
S1130DE07093A9008093AA009093AB0004C080E99B
S1130DF090E00E94790184E08093600003C084E065
S1130E0080936000DF91CF911F910F91FF90EF903D
S1130E10DF90CF90BF90AF909F908F907F906F9016
S1130E205F904F900895482F50E0FA013197E031D8
S1130E30F10518F5EA5CFF4F0C94190987E0089551
S1130E4089E0089585E2089584E0089585E0089591
S1130E5086E008958AE2089581E0089582E0089585
S1130E6083E008958DE208958DE0089580E008956B
S1130E708DE308958BE2089588E0089580E022C010
S1130E8020E130E0082E02C0220F331F0A94E2F75B
S1130E902ABB20952BBB90E012C029B330E0092E69
S1130EA002C0359527950A94E2F720FD07C0990FF3
S1130EB0990F890F8F5F0E94130708959F5F9430E5
S1130EC060F38F5F8430E0F2D9CFCF92DF92EF925C
S1130ED0FF920F931F93F82FE62FC12CD12C76018C
S1130EE0C39461E070E080E090E00BC0AF2FB0E00D
S1130EF09B01AC010E941F092FEFC21AD20AE20A19
S1130F00F20A0E2F10E020E030E00C151D052E052E
S1130F103F0560F71F910F91FF90EF90DF90CF9006
S1130F2008952F923F924F925F926F927F928F9289
S1130F309F92AF92BF92CF92DF92EF92FF920F9364
S1130F401F93CF93DF9300D000D01F92CDB7DEB7AD
S1130F5029833D83942E852E562E472E382E292EF6
S1130F603801CA82A0E00E946C0A6CF40E94130A41
S1130F7029833D83942E852E562E472E382E292ED6
S1130F8081E08B8301C01B821C82AA80B12CC12CFE
S1130F90D12CE12CF12C00E010E029813D81492D78
S1130FA0582D652D742D832D922D0E9483092A308E
S1130FB048F4F3019C81E90FF11D205D20839F5FBC
S1130FC09C8308C0F3018C81E80FF11D295C208308
S1130FD08F5F8C83AA80B12CC12CD12CE12CF12CF5
S1130FE000E010E029813D81492D582D652D742D97
S1130FF0832D922D0E94850929833D83942E852E6D
S1131000562E472E382E292EA0E00E946C0A11F08D
S11310100CF0BBCF9B81992331F08DE2F3019C81CD
S1131020E90FF11D80838C818F5FF301E80FF11DBF
S11310301082C3010E94870A80E00F900F900F90E6
S11310400F900F90DF91CF911F910F91FF90EF9030
S1131050DF90CF90BF90AF909F908F907F906F90D4
S11310605F904F903F902F90089592B39E7F92BBD4
S113107092B39D7F92BBE9EFF0E03197F1F700C0A6
S1131080000092B3946092BBE9EFF0E03197F1F77E
S113109000C0000085BB89EF90E00197F1F700C024
S11310A0000082B38B7F82BBE9EFF0E03197F1F768
S11310B000C00000089581B3876081BB8FEF84BBBB
S11310C088E30E9435088EE00E94350881E00E9482
S11310D03508089592B3916092BB92B39D7F92BB01
S11310E0E9EFF0E03197F1F700C0000092B39460AB
S11310F092BBE9EFF0E03197F1F700C0000085BB47
S113110089EF90E00197F1F700C0000082B38B7F74
S113111082BBE9EFF0E03197F1F700C000000895D9
S11311200F931F93CF938C01C0E003C00E946A0801
S1131130CF5FF801EC0FF11D80818111F7CFCF91C2
S11311401F910F910895813031F070F0823031F0A9
S1131150833039F00AC090E4960F07C090E1960FEF
S113116004C090E5960F01C0962F892F80680E94D5
S11311703508089581E00E9435080895AF92BF9222
S1131180CF92EF920F931F93CF93DF93CDB7DEB738
S113119060970FB6F894DEBF0FBECDBFDE01119687
S11311A05D01E0E11D92EA95E9F70F2EFAE0CF2EFA
S11311B0F02D6894EE24E4F885010E949107C5019E
S11311C00E94900860960FB6F894DEBF0FBECDBFA4
S11311D0DF91CF911F910F91EF90CF90BF90AF907F
S11311E008950E945B080E94BA080E9465000E944C
S11311F0BA0881E08093600002C00E94B700809129
S113120060008130D1F302C00E948D0180916000A2
S11312108230D1F302C00E94640280916000833066
S1131220D1F302C00E945B01809160008430D1F34D
S1131230DCCFEE0FFF1F0590F491E02D09940E947E
S1131240780AA59F900DB49F900DA49F800D911DC9
S113125011240895DF93CF931F930F939A9DF02D3C
S1131260219FF00D8B9DF00D8A9DE02DF10D039FC4
S1131270F00D029FE00DF11D4E9DE00DF11D5E9DF0
S1131280F00D4F9DF00D7F936F93BF92AF925F93DC
S11312904F93D5010E94780A8B01AC01D7010E94BB
S11312A0780AEB01E80FF91FD6010E947A092F9101
S11312B03F91D6010E94780AC60FD71FE81FF91F75
S11312C0AF91BF910E947A092F913F910E94780AB1
S11312D0C60FD71FE81FF91FD6010E94780AE60F30
S11312E0F71F9801BE01CF0111240F911F91CF91D7
S11312F0DF9108950E94780A460F571FC81FD91F0F
S113130008F431960895689401C0E894F92FF12BFC
S113131012F00C94B709A0E0B0E0E1E9F9E00C9414
S1131320290A092E059422F40E94130A112392F427
S1131330F0E80F26FFEFE094F09400951095B09438
S1131340C094D094A194BF0ACF0ADF0AEF0AFF0A1F
S11313500F0B1F0B0E94C20907FC0E94130ACDB792
S1131360DEB7ECE00C94450A689401C0E8948F92CF
S11313709F92CF93DF930E94C209DF91CF919F90F8
S11313808F90089588249924F401E401B0E49F9394
S1131390AA279A158B049C04ED05FE05CF05D007FA
S11313A0A10798F4AD2FDC2FCF2FFE2FE92D982C19
S11313B0892E982F872F762F652F542F432F322F66
S11313C02227B85031F7BF9127C01B2EBF91BB27EE
S11313D0220F331F441F551F661F771F881F991F35
S11313E0881C991CEE1FFF1FCC1FDD1FAA1FBB1FEB
S11313F08A149B04EC05FD05CE05DF05A007B107A3
S113140048F08A189B08EC09FD09CE09DF09A00BF6
S1131410B10B21601A94E1F62EF49401AF01BE01E0
S1131420CD01000C08956095709580959095309548
S11314304095509521953F4F4F4F5F4F6F4F7F4FD2
S11314408F4F9F4F08952F923F924F925F926F92CA
S11314507F928F929F92AF92BF92CF92DF92EF9240
S1131460FF920F931F93CF93DF93CDB7DEB7CA1BC1
S1131470DB0B0FB6F894DEBF0FBECDBF09942A88EC
S1131480398848885F846E847D848C849B84AA8494
S1131490B984C884DF80EE80FD800C811B81AA8121
S11314A0B981CE0FD11D0FB6F894DEBF0FBECDBFEC
S11314B0ED0108952A0D3B1D4C1D5D1D6E1D7F1D04
S11314C0801F911F08952A193B094C095D096E0973
S11314D07F09800B910B08950024A7FD00942A171F
S11314E03005400550056005700580059005089598
S11314F0A29FB001B39FC001A39F700D811D112451
S1131500911DB29F700D811D1124911D0895DC0160
S1131510FC01672F71917723E1F7329704C07C9126
S11315206D9370836291AE17BF07C8F30895F89462
S1051530FFCFE7
S113153201496E76616C696420696E707574004944
S11315426E76616C69642053796E746178004361CC
S11315526C63756C6174696F6E204572726F720090
S111156250696F726974794572726F7200007D
S9030000FC
