S01C000054726166666963206C696768742064657369676E2E7372656377
S11300000C942A000C9447000C9447000C9447006D
S11300100C9447000C9447000C9447000C94470040
S11300200C9447000C9447000C9447000C94A701CF
S11300300C9447000C9447000C9447000C94470020
S11300400C9447000C9447000C9447000C94470010
S11300500C94470011241FBECFE5D8E0DEBFCDBF0E
S113006010E0A0E6B0E0E4E8F3E002C005900D92F1
S1130070AC36B107D9F720E0ACE6B0E001C01D9280
S1130080AF36B207E1F70E9492000C94C0010C94C1
S1130090000087B3876087BB84B38F6784BB81B359
S11300A08F6781BB15BA12BA089585E083BF89B7FB
S11300B0816089BF78940895E82FF0E0EE59FF4FEE
S11300C0808185BB85B3816085BB81EE94E0019717
S11300D0F1F700C0000085B38E7F85BBE62FF0E00A
S11300E0EE59FF4F808182BB82B3816082BB81EE77
S11300F094E00197F1F700C0000082B38E7F82BBC9
S1130100089598B3987F98BB98B370E0660F771FF3
S113011050E0440F551F440F551F862B482B492B85
S113012048BB08950E9449000E94550081E08093D5
S11301306C0040E060E00E94810081E090E09093D8
S113014061008093600045C040916000509161005F
S11301509A01ADECBCEC0E94B101969587959695F9
S11301608795969587959C01220F331F880F991FB9
S1130170880F991F880F991F820F931F9A01281BBC
S1130180390B20936E0020916000309161000E9431
S1130190B1019695879596958795969587958093C1
S11301A06D0060916D0080916E000E945C003FE3E1
S11301B08DE093E0315080409040E1F700C00000B2
S11301C0809160009091610001969093610080930A
S11301D060008091600090916100409708F4B4CF72
S11301E082E080936C0040E061E080E00E94810046
S11301F081E090E0909361008093600045C040915D
S11302006000509161009A01ADECBCEC0E94B10118
S11302109695879596958795969587959C01220F37
S1130220331F880F991F880F991F880F991F820FFA
S1130230931F9A01281B390B20936E0020916000B4
S1130240309161000E94B1019695879596958795A6
S11302509695879580936D0060916D0080916E00F6
S11302600E945C003FE38DE093E031508040904079
S1130270E1F700C000008091600090916100019658
S11302809093610080936000809160009091610080
S1130290069708F4B4CF83E080936C0041E060E0FB
S11302A080E00E94810081E090E09093610080935F
S11302B0600045C040916000509161009A01ADEC2E
S11302C0BCEC0E94B1019695879596958795969575
S11302D087959C01220F331F880F991F880F991F40
S11302E0880F991F820F931F9A01281B390B2093A3
S11302F06E0020916000309161000E94B1019695DA
S11303008795969587959695879580936D006091CE
S11303106D0080916E000E945C003FE38DE093E0ED
S1130320315080409040E1F700C0000080916000AF
S11303309091610001969093610080936000809198
S11303406000909161000B9708F4B4CFEFCE1F9238
S11303500F920FB60F9211240F900FBE0F901F90A3
S11303601895A29FB001B39FC001A39F700D811D7A
S11303701124911DB29F700D811D1124911D0895AA
S1070380F894FFCF1B
S10F038401003F065B4F666D7D077F6F34
S9030000FC
