S00D000074696D65722E73726563F6
S11300000C942A000C9447000C9447000C9447006D
S11300100C9447000C9447000C9447000C94470040
S11300200C9447000C9447000C9447000C94510026
S11300300C9447000C9447000C9447000C94470020
S11300400C9447000C9447000C9447000C94470010
S11300500C94470011241FBECFE5D8E0DEBFCDBF0E
S113006010E0A0E6B0E0ECEBF1E002C005900D92E8
S1130070AA36B107D9F720E0AAE6B0E001C01D9284
S1130080AD36B207E1F70E94B8000C94DC000C9482
S1130090000085E083BF89B7816089BF12BE789470
S11300A008951F920F920FB60F9211242F938F93DE
S11300B09F9380916C00833628F480916C008F5F4D
S11300C080936C0090916C008DEC989F912D11247D
S11300D096959695969590936B0020916C00289F29
S11300E0812D1124869586958695880F982F990FD2
S11300F0990F890F281B20936A009F918F912F914C
S11301000F900FBE0F901F9018958FEF81BB08952D
S1130110CF93DF93CDB7DEB72A970FB6F894DEBF3F
S11301200FBECDBF9AE0E0E6F0E0DE01119601904B
S11301300D929A95E1F7E1E0F0E0EC0FFD1FE60F78
S1130140F11D208190E1299F90011124E1E0F0E06C
S1130150EC0FFD1FE80FF11D8081282B22BB2A968E
S11301600FB6F894DEBF0FBECDBFDF91CF910895D7
S113017084B3816084BB0E9485000E94490095B3CA
S113018081E0892785BB60916A0080916B000E94A1
S1130190880080916C00833650F42FE38DE093E067
S11301A0215080409040E1F700C00000E8CF69E0B2
S10F01B089E00E948800FFCFF894FFCF84
S10D01BCC0F9A4B0999282F8809073
S9030000FC
